{
  "_format": "hh-sol-artifact-1",
  "contractName": "BarterExchange",
  "sourceName": "contracts/BarterExchange.sol",
  "abi": [
    {
      "inputs": [],
      "stateMutability": "nonpayable",
      "type": "constructor"
    },
    {
      "inputs": [
        {
          "internalType": "address",
          "name": "owner",
          "type": "address"
        }
      ],
      "name": "OwnableInvalidOwner",
      "type": "error"
    },
    {
      "inputs": [
        {
          "internalType": "address",
          "name": "account",
          "type": "address"
        }
      ],
      "name": "OwnableUnauthorizedAccount",
      "type": "error"
    },
    {
      "inputs": [],
      "name": "ReentrancyGuardReentrantCall",
      "type": "error"
    },
    {
      "anonymous": false,
      "inputs": [
        {
          "indexed": true,
          "internalType": "address",
          "name": "previousOwner",
          "type": "address"
        },
        {
          "indexed": true,
          "internalType": "address",
          "name": "newOwner",
          "type": "address"
        }
      ],
      "name": "OwnershipTransferred",
      "type": "event"
    },
    {
      "anonymous": false,
      "inputs": [
        {
          "indexed": true,
          "internalType": "uint256",
          "name": "tradeId",
          "type": "uint256"
        },
        {
          "indexed": true,
          "internalType": "address",
          "name": "lister",
          "type": "address"
        }
      ],
      "name": "TradeCancelled",
      "type": "event"
    },
    {
      "anonymous": false,
      "inputs": [
        {
          "indexed": true,
          "internalType": "uint256",
          "name": "tradeId",
          "type": "uint256"
        },
        {
          "indexed": true,
          "internalType": "address",
          "name": "lister",
          "type": "address"
        },
        {
          "indexed": true,
          "internalType": "address",
          "name": "acceptor",
          "type": "address"
        },
        {
          "indexed": false,
          "internalType": "address",
          "name": "offeredNftContract",
          "type": "address"
        },
        {
          "indexed": false,
          "internalType": "uint256",
          "name": "offeredNftId",
          "type": "uint256"
        },
        {
          "indexed": false,
          "internalType": "address",
          "name": "requestedAssetContract",
          "type": "address"
        },
        {
          "indexed": false,
          "internalType": "uint256",
          "name": "requestedAssetIdOrAmount",
          "type": "uint256"
        }
      ],
      "name": "TradeExecuted",
      "type": "event"
    },
    {
      "anonymous": false,
      "inputs": [
        {
          "indexed": true,
          "internalType": "uint256",
          "name": "tradeId",
          "type": "uint256"
        },
        {
          "indexed": true,
          "internalType": "address",
          "name": "lister",
          "type": "address"
        },
        {
          "indexed": true,
          "internalType": "address",
          "name": "offeredNftContract",
          "type": "address"
        },
        {
          "indexed": false,
          "internalType": "uint256",
          "name": "offeredNftId",
          "type": "uint256"
        },
        {
          "indexed": false,
          "internalType": "address",
          "name": "requestedAssetContract",
          "type": "address"
        },
        {
          "indexed": false,
          "internalType": "uint256",
          "name": "requestedAssetIdOrAmount",
          "type": "uint256"
        },
        {
          "indexed": false,
          "internalType": "enum BarterExchange.AssetType",
          "name": "requestedAssetType",
          "type": "uint8"
        }
      ],
      "name": "TradeListed",
      "type": "event"
    },
    {
      "inputs": [
        {
          "internalType": "uint256",
          "name": "tradeId",
          "type": "uint256"
        }
      ],
      "name": "cancelTrade",
      "outputs": [],
      "stateMutability": "nonpayable",
      "type": "function"
    },
    {
      "inputs": [
        {
          "internalType": "address",
          "name": "offeredNftContract",
          "type": "address"
        },
        {
          "internalType": "uint256",
          "name": "offeredNftId",
          "type": "uint256"
        },
        {
          "internalType": "address",
          "name": "requestedAssetContract",
          "type": "address"
        },
        {
          "internalType": "uint256",
          "name": "requestedAssetIdOrAmount",
          "type": "uint256"
        },
        {
          "internalType": "enum BarterExchange.AssetType",
          "name": "requestedAssetType",
          "type": "uint8"
        }
      ],
      "name": "createTrade",
      "outputs": [
        {
          "internalType": "uint256",
          "name": "",
          "type": "uint256"
        }
      ],
      "stateMutability": "nonpayable",
      "type": "function"
    },
    {
      "inputs": [
        {
          "internalType": "uint256",
          "name": "tradeId",
          "type": "uint256"
        }
      ],
      "name": "executeTrade",
      "outputs": [],
      "stateMutability": "nonpayable",
      "type": "function"
    },
    {
      "inputs": [],
      "name": "getNextTradeId",
      "outputs": [
        {
          "internalType": "uint256",
          "name": "",
          "type": "uint256"
        }
      ],
      "stateMutability": "view",
      "type": "function"
    },
    {
      "inputs": [
        {
          "internalType": "uint256",
          "name": "tradeId",
          "type": "uint256"
        }
      ],
      "name": "getTrade",
      "outputs": [
        {
          "components": [
            {
              "internalType": "uint256",
              "name": "tradeId",
              "type": "uint256"
            },
            {
              "internalType": "address",
              "name": "lister",
              "type": "address"
            },
            {
              "internalType": "address",
              "name": "offeredNftContract",
              "type": "address"
            },
            {
              "internalType": "uint256",
              "name": "offeredNftId",
              "type": "uint256"
            },
            {
              "internalType": "address",
              "name": "requestedAssetContract",
              "type": "address"
            },
            {
              "internalType": "uint256",
              "name": "requestedAssetIdOrAmount",
              "type": "uint256"
            },
            {
              "internalType": "enum BarterExchange.AssetType",
              "name": "requestedAssetType",
              "type": "uint8"
            },
            {
              "internalType": "enum BarterExchange.Status",
              "name": "status",
              "type": "uint8"
            },
            {
              "internalType": "uint256",
              "name": "createdAt",
              "type": "uint256"
            }
          ],
          "internalType": "struct BarterExchange.Trade",
          "name": "",
          "type": "tuple"
        }
      ],
      "stateMutability": "view",
      "type": "function"
    },
    {
      "inputs": [
        {
          "internalType": "address",
          "name": "lister",
          "type": "address"
        }
      ],
      "name": "getTradesByLister",
      "outputs": [
        {
          "internalType": "uint256[]",
          "name": "",
          "type": "uint256[]"
        }
      ],
      "stateMutability": "view",
      "type": "function"
    },
    {
      "inputs": [],
      "name": "owner",
      "outputs": [
        {
          "internalType": "address",
          "name": "",
          "type": "address"
        }
      ],
      "stateMutability": "view",
      "type": "function"
    },
    {
      "inputs": [],
      "name": "pause",
      "outputs": [],
      "stateMutability": "nonpayable",
      "type": "function"
    },
    {
      "inputs": [],
      "name": "renounceOwnership",
      "outputs": [],
      "stateMutability": "nonpayable",
      "type": "function"
    },
    {
      "inputs": [
        {
          "internalType": "uint256",
          "name": "",
          "type": "uint256"
        }
      ],
      "name": "trades",
      "outputs": [
        {
          "internalType": "uint256",
          "name": "tradeId",
          "type": "uint256"
        },
        {
          "internalType": "address",
          "name": "lister",
          "type": "address"
        },
        {
          "internalType": "address",
          "name": "offeredNftContract",
          "type": "address"
        },
        {
          "internalType": "uint256",
          "name": "offeredNftId",
          "type": "uint256"
        },
        {
          "internalType": "address",
          "name": "requestedAssetContract",
          "type": "address"
        },
        {
          "internalType": "uint256",
          "name": "requestedAssetIdOrAmount",
          "type": "uint256"
        },
        {
          "internalType": "enum BarterExchange.AssetType",
          "name": "requestedAssetType",
          "type": "uint8"
        },
        {
          "internalType": "enum BarterExchange.Status",
          "name": "status",
          "type": "uint8"
        },
        {
          "internalType": "uint256",
          "name": "createdAt",
          "type": "uint256"
        }
      ],
      "stateMutability": "view",
      "type": "function"
    },
    {
      "inputs": [
        {
          "internalType": "address",
          "name": "newOwner",
          "type": "address"
        }
      ],
      "name": "transferOwnership",
      "outputs": [],
      "stateMutability": "nonpayable",
      "type": "function"
    }
  ],
  "bytecode": "0x608060405234801561001057600080fd5b506001600055338061003c57604051631e4fbdf760e01b81526000600482015260240160405180910390fd5b61004581610050565b5060016002556100a2565b600180546001600160a01b038381166001600160a01b0319831681179093556040519116919082907f8be0079c531659141344cd1fd0a4f28419497f9722a3daafe3b4186f6b6457e090600090a35050565b61187e806100b16000396000f3fe608060405234801561001057600080fd5b50600436106100a95760003560e01c8063780ea50f11610071578063780ea50f1461018b5780638456cb59146101ab5780638da5cb5b146101b3578063a7482a4d146101ce578063ea4aa016146101ef578063f2fde38b146101f757600080fd5b806302d2838b146100ae57806309ec6cc7146100c35780631e6c598e146100d65780632db25e0514610163578063715018a614610183575b600080fd5b6100c16100bc3660046114e4565b61020a565b005b6100c16100d13660046114e4565b610b6b565b6101456100e43660046114e4565b60036020819052600091825260409091208054600182015460028301549383015460048401546005850154600686015460079096015494966001600160a01b039485169690851695939490921692909160ff80821692610100909204169089565b60405161015a99989796959493929190611537565b60405180910390f35b6101766101713660046114e4565b610c99565b60405161015a919061159b565b6100c1610dfc565b61019e610199366004611635565b610e10565b60405161015a9190611659565b6100c1610f7d565b6001546040516001600160a01b03909116815260200161015a565b6101e16101dc36600461169d565b610f85565b60405190815260200161015a565b6002546101e1565b6100c1610205366004611635565b611400565b61021261143b565b6000818152600360205260408120805490910361024a5760405162461bcd60e51b815260040161024190611700565b60405180910390fd5b60006006820154610100900460ff16600281111561026a5761026a6114fd565b146102ab5760405162461bcd60e51b81526020600482015260116024820152702a3930b2329034b9903737ba1037b832b760791b6044820152606401610241565b6001810154336001600160a01b03909116036103095760405162461bcd60e51b815260206004820152601c60248201527f43616e6e6f742061636365707420796f7572206f776e207472616465000000006044820152606401610241565b6002810154600182015460038301546040516331a9108f60e11b815260048101919091526001600160a01b0392831692909116908290636352211e90602401602060405180830381865afa158015610365573d6000803e3d6000fd5b505050506040513d601f19601f82011682018060405250810190610389919061172e565b6001600160a01b0316146103e95760405162461bcd60e51b815260206004820152602160248201527f4c6973746572206e6f206c6f6e676572206f776e73206f666665726564204e466044820152601560fa1b6064820152608401610241565b600182015460405163e985e9c560e01b81526001600160a01b0391821660048201523060248201529082169063e985e9c590604401602060405180830381865afa15801561043b573d6000803e3d6000fd5b505050506040513d601f19601f8201168201806040525081019061045f919061174b565b806104e65750600382015460405163020604bf60e21b815230916001600160a01b0384169163081812fc9161049a9160040190815260200190565b602060405180830381865afa1580156104b7573d6000803e3d6000fd5b505050506040513d601f19601f820116820180604052508101906104db919061172e565b6001600160a01b0316145b6105465760405162461bcd60e51b815260206004820152602b60248201527f436f6e7472616374206e6f206c6f6e67657220617070726f76656420666f722060448201526a1bd999995c99590813919560aa1b6064820152608401610241565b6000600683015460ff166001811115610561576105616114fd565b036108625760048281015460058401546040516331a9108f60e11b8152928301526001600160a01b03169033908290636352211e90602401602060405180830381865afa1580156105b6573d6000803e3d6000fd5b505050506040513d601f19601f820116820180604052508101906105da919061172e565b6001600160a01b0316146106305760405162461bcd60e51b815260206004820152601a60248201527f4e6f74206f776e6572206f6620726571756573746564204e46540000000000006044820152606401610241565b60405163e985e9c560e01b81523360048201523060248201526001600160a01b0382169063e985e9c590604401602060405180830381865afa15801561067a573d6000803e3d6000fd5b505050506040513d601f19601f8201168201806040525081019061069e919061174b565b806107255750600583015460405163020604bf60e21b815230916001600160a01b0384169163081812fc916106d99160040190815260200190565b602060405180830381865afa1580156106f6573d6000803e3d6000fd5b505050506040513d601f19601f8201168201806040525081019061071a919061172e565b6001600160a01b0316145b6107815760405162461bcd60e51b815260206004820152602760248201527f436f6e7472616374206e6f7420617070726f76656420666f72207265717565736044820152661d19590813919560ca1b6064820152608401610241565b60018301546003840154604051632142170760e11b81526001600160a01b03808616936342842e0e936107bd939190921691339160040161176d565b600060405180830381600087803b1580156107d757600080fd5b505af11580156107eb573d6000803e3d6000fd5b5050505060018301546005840154604051632142170760e11b81526001600160a01b03848116936342842e0e9361082a9333939092169160040161176d565b600060405180830381600087803b15801561084457600080fd5b505af1158015610858573d6000803e3d6000fd5b5050505050610ad8565b60048281015460058401546040516370a0823160e01b815233938101939093526001600160a01b039091169182906370a0823190602401602060405180830381865afa1580156108b6573d6000803e3d6000fd5b505050506040513d601f19601f820116820180604052508101906108da9190611791565b10156109285760405162461bcd60e51b815260206004820152601a60248201527f496e73756666696369656e7420746f6b656e2062616c616e63650000000000006044820152606401610241565b6005830154604051636eb1769f60e11b81523360048201523060248201526001600160a01b0383169063dd62ed3e90604401602060405180830381865afa158015610977573d6000803e3d6000fd5b505050506040513d601f19601f8201168201806040525081019061099b9190611791565b10156109e95760405162461bcd60e51b815260206004820152601c60248201527f496e73756666696369656e7420746f6b656e20616c6c6f77616e6365000000006044820152606401610241565b60018301546003840154604051632142170760e11b81526001600160a01b03808616936342842e0e93610a25939190921691339160040161176d565b600060405180830381600087803b158015610a3f57600080fd5b505af1158015610a53573d6000803e3d6000fd5b50505050600183015460058401546040516323b872dd60e01b81526001600160a01b03848116936323b872dd93610a929333939092169160040161176d565b6020604051808303816000875af1158015610ab1573d6000803e3d6000fd5b505050506040513d601f19601f82011682018060405250810190610ad5919061174b565b50505b60068201805461ff00191661010017905560018201546002830154600384015460048501546005860154604080516001600160a01b0395861681526020810194909452918416838301526060830152513393929092169186917f8d8a4eb3228295a4bf6ff6f733b123982a00a99905962833a360e78935d859f3919081900360800190a45050610b686001600055565b50565b60008181526003602052604081208054909103610b9a5760405162461bcd60e51b815260040161024190611700565b60018101546001600160a01b03163314610bf65760405162461bcd60e51b815260206004820152601c60248201527f4f6e6c79206c69737465722063616e2063616e63656c207472616465000000006044820152606401610241565b60006006820154610100900460ff166002811115610c1657610c166114fd565b14610c575760405162461bcd60e51b81526020600482015260116024820152702a3930b2329034b9903737ba1037b832b760791b6044820152606401610241565b60068101805461ff001916610200179055604051339083907f68bbfaa8a985659b13e3f23ffac8fc9039d6ca60199cd9327817cb0cc03eb87690600090a35050565b610ce86040805161012081018252600080825260208201819052918101829052606081018290526080810182905260a081018290529060c0820190815260200160008152602001600081525090565b6000828152600360205260408120549003610d155760405162461bcd60e51b815260040161024190611700565b600082815260036020818152604092839020835161012081018552815481526001808301546001600160a01b0390811694830194909452600283015484169582019590955292810154606084015260048101549091166080830152600581015460a083015260068101549192909160c084019160ff90911690811115610d9d57610d9d6114fd565b6001811115610dae57610dae6114fd565b81526020016006820160019054906101000a900460ff166002811115610dd657610dd66114fd565b6002811115610de757610de76114fd565b81526020016007820154815250509050919050565b610e04611465565b610e0e6000611492565b565b606060006001600254610e2391906117c0565b67ffffffffffffffff811115610e3b57610e3b6117d9565b604051908082528060200260200182016040528015610e64578160200160208202803683370190505b509050600060015b600254811015610ed8576000818152600360205260409020600101546001600160a01b03808716911603610ec65780838381518110610ead57610ead6117ef565b602090810291909101015281610ec281611805565b9250505b80610ed081611805565b915050610e6c565b5060008167ffffffffffffffff811115610ef457610ef46117d9565b604051908082528060200260200182016040528015610f1d578160200160208202803683370190505b50905060005b82811015610f7457838181518110610f3d57610f3d6117ef565b6020026020010151828281518110610f5757610f576117ef565b602090810291909101015280610f6c81611805565b915050610f23565b50949350505050565b610e0e611465565b6000610f8f61143b565b6001600160a01b038616610fdc5760405162461bcd60e51b8152602060048201526014602482015273125b9d985b1a59081391950818dbdb9d1c9858dd60621b6044820152606401610241565b6001600160a01b0384166110325760405162461bcd60e51b815260206004820181905260248201527f496e76616c69642072657175657374656420617373657420636f6e74726163746044820152606401610241565b6040516331a9108f60e11b815260048101869052869033906001600160a01b03831690636352211e90602401602060405180830381865afa15801561107b573d6000803e3d6000fd5b505050506040513d601f19601f8201168201806040525081019061109f919061172e565b6001600160a01b0316146110f55760405162461bcd60e51b815260206004820152601860248201527f4e6f74206f776e6572206f66206f666665726564204e465400000000000000006044820152606401610241565b60405163e985e9c560e01b81523360048201523060248201526001600160a01b0382169063e985e9c590604401602060405180830381865afa15801561113f573d6000803e3d6000fd5b505050506040513d601f19601f82011682018060405250810190611163919061174b565b806111df575060405163020604bf60e21b81526004810187905230906001600160a01b0383169063081812fc90602401602060405180830381865afa1580156111b0573d6000803e3d6000fd5b505050506040513d601f19601f820116820180604052508101906111d4919061172e565b6001600160a01b0316145b6112395760405162461bcd60e51b815260206004820152602560248201527f436f6e7472616374206e6f7420617070726f76656420746f207472616e7366656044820152641c8813919560da1b6064820152608401610241565b600280546000918261124a83611805565b919050559050604051806101200160405280828152602001336001600160a01b03168152602001896001600160a01b03168152602001888152602001876001600160a01b031681526020018681526020018560018111156112ad576112ad6114fd565b81526020016000815242602091820152600083815260038083526040918290208451815592840151600180850180546001600160a01b03199081166001600160a01b0394851617909155938601516002860180548616918416919091179055606086015192850192909255608085015160048501805490941691161790915560a0830151600583015560c08301516006830180549192909160ff191690838181111561135b5761135b6114fd565b021790555060e082015160068201805461ff001916610100836002811115611385576113856114fd565b02179055506101008201518160070155905050876001600160a01b0316336001600160a01b0316827fcf3c2da107ad7b14e7b82dfb422122213e5ead2924295e81aaa0622c336ff89b8a8a8a8a6040516113e2949392919061181e565b60405180910390a49150506113f76001600055565b95945050505050565b611408611465565b6001600160a01b03811661143257604051631e4fbdf760e01b815260006004820152602401610241565b610b6881611492565b60026000540361145e57604051633ee5aeb560e01b815260040160405180910390fd5b6002600055565b6001546001600160a01b03163314610e0e5760405163118cdaa760e01b8152336004820152602401610241565b600180546001600160a01b038381166001600160a01b0319831681179093556040519116919082907f8be0079c531659141344cd1fd0a4f28419497f9722a3daafe3b4186f6b6457e090600090a35050565b6000602082840312156114f657600080fd5b5035919050565b634e487b7160e01b600052602160045260246000fd5b60028110611523576115236114fd565b9052565b60038110611523576115236114fd565b8981526001600160a01b0389811660208301528881166040830152606082018890528616608082015260a08101859052610120810161157960c0830186611513565b61158660e0830185611527565b826101008301529a9950505050505050505050565b815181526020808301516001600160a01b039081169183019190915260408084015182169083015260608084015190830152608080840151918216908301526101208201905060a083015160a083015260c08301516115fd60c0840182611513565b5060e083015161161060e0840182611527565b5061010092830151919092015290565b6001600160a01b0381168114610b6857600080fd5b60006020828403121561164757600080fd5b813561165281611620565b9392505050565b6020808252825182820181905260009190848201906040850190845b8181101561169157835183529284019291840191600101611675565b50909695505050505050565b600080600080600060a086880312156116b557600080fd5b85356116c081611620565b94506020860135935060408601356116d781611620565b9250606086013591506080860135600281106116f257600080fd5b809150509295509295909350565b602080825260149082015273151c98591948191bd95cc81b9bdd08195e1a5cdd60621b604082015260600190565b60006020828403121561174057600080fd5b815161165281611620565b60006020828403121561175d57600080fd5b8151801515811461165257600080fd5b6001600160a01b039384168152919092166020820152604081019190915260600190565b6000602082840312156117a357600080fd5b5051919050565b634e487b7160e01b600052601160045260246000fd5b818103818111156117d3576117d36117aa565b92915050565b634e487b7160e01b600052604160045260246000fd5b634e487b7160e01b600052603260045260246000fd5b600060018201611817576118176117aa565b5060010190565b8481526001600160a01b038416602082015260408101839052608081016113f7606083018461151356fea2646970667358221220e12a8ba673fc91f61ba2f50a08991eaa920e460b26f01c4630b7ff1b90c1b7d564736f6c63430008140033",
  "linkReferences": {},
  "deployedLinkReferences": {}
}