{
  "_format": "hh-sol-artifact-1",
  "contractName": "MockNFT",
  "sourceName": "contracts/mocks/MockNFT.sol",
  "abi": [
    {
      "inputs": [
        {
          "internalType": "string",
          "name": "name",
          "type": "string"
        },
        {
          "internalType": "string",
          "name": "symbol",
          "type": "string"
        }
      ],
      "stateMutability": "nonpayable",
      "type": "constructor"
    },
    {
      "inputs": [
        {
          "internalType": "address",
          "name": "sender",
          "type": "address"
        },
        {
          "internalType": "uint256",
          "name": "tokenId",
          "type": "uint256"
        },
        {
          "internalType": "address",
          "name": "owner",
          "type": "address"
        }
      ],
      "name": "ERC721IncorrectOwner",
      "type": "error"
    },
    {
      "inputs": [
        {
          "internalType": "address",
          "name": "operator",
          "type": "address"
        },
        {
          "internalType": "uint256",
          "name": "tokenId",
          "type": "uint256"
        }
      ],
      "name": "ERC721InsufficientApproval",
      "type": "error"
    },
    {
      "inputs": [
        {
          "internalType": "address",
          "name": "approver",
          "type": "address"
        }
      ],
      "name": "ERC721InvalidApprover",
      "type": "error"
    },
    {
      "inputs": [
        {
          "internalType": "address",
          "name": "operator",
          "type": "address"
        }
      ],
      "name": "ERC721InvalidOperator",
      "type": "error"
    },
    {
      "inputs": [
        {
          "internalType": "address",
          "name": "owner",
          "type": "address"
        }
      ],
      "name": "ERC721InvalidOwner",
      "type": "error"
    },
    {
      "inputs": [
        {
          "internalType": "address",
          "name": "receiver",
          "type": "address"
        }
      ],
      "name": "ERC721InvalidReceiver",
      "type": "error"
    },
    {
      "inputs": [
        {
          "internalType": "address",
          "name": "sender",
          "type": "address"
        }
      ],
      "name": "ERC721InvalidSender",
      "type": "error"
    },
    {
      "inputs": [
        {
          "internalType": "uint256",
          "name": "tokenId",
          "type": "uint256"
        }
      ],
      "name": "ERC721NonexistentToken",
      "type": "error"
    },
    {
      "inputs": [
        {
          "internalType": "address",
          "name": "owner",
          "type": "address"
        }
      ],
      "name": "OwnableInvalidOwner",
      "type": "error"
    },
    {
      "inputs": [
        {
          "internalType": "address",
          "name": "account",
          "type": "address"
        }
      ],
      "name": "OwnableUnauthorizedAccount",
      "type": "error"
    },
    {
      "anonymous": false,
      "inputs": [
        {
          "indexed": true,
          "internalType": "address",
          "name": "owner",
          "type": "address"
        },
        {
          "indexed": true,
          "internalType": "address",
          "name": "approved",
          "type": "address"
        },
        {
          "indexed": true,
          "internalType": "uint256",
          "name": "tokenId",
          "type": "uint256"
        }
      ],
      "name": "Approval",
      "type": "event"
    },
    {
      "anonymous": false,
      "inputs": [
        {
          "indexed": true,
          "internalType": "address",
          "name": "owner",
          "type": "address"
        },
        {
          "indexed": true,
          "internalType": "address",
          "name": "operator",
          "type": "address"
        },
        {
          "indexed": false,
          "internalType": "bool",
          "name": "approved",
          "type": "bool"
        }
      ],
      "name": "ApprovalForAll",
      "type": "event"
    },
    {
      "anonymous": false,
      "inputs": [
        {
          "indexed": true,
          "internalType": "address",
          "name": "previousOwner",
          "type": "address"
        },
        {
          "indexed": true,
          "internalType": "address",
          "name": "newOwner",
          "type": "address"
        }
      ],
      "name": "OwnershipTransferred",
      "type": "event"
    },
    {
      "anonymous": false,
      "inputs": [
        {
          "indexed": true,
          "internalType": "address",
          "name": "from",
          "type": "address"
        },
        {
          "indexed": true,
          "internalType": "address",
          "name": "to",
          "type": "address"
        },
        {
          "indexed": true,
          "internalType": "uint256",
          "name": "tokenId",
          "type": "uint256"
        }
      ],
      "name": "Transfer",
      "type": "event"
    },
    {
      "inputs": [
        {
          "internalType": "address",
          "name": "to",
          "type": "address"
        },
        {
          "internalType": "uint256",
          "name": "tokenId",
          "type": "uint256"
        }
      ],
      "name": "approve",
      "outputs": [],
      "stateMutability": "nonpayable",
      "type": "function"
    },
    {
      "inputs": [
        {
          "internalType": "address",
          "name": "owner",
          "type": "address"
        }
      ],
      "name": "balanceOf",
      "outputs": [
        {
          "internalType": "uint256",
          "name": "",
          "type": "uint256"
        }
      ],
      "stateMutability": "view",
      "type": "function"
    },
    {
      "inputs": [
        {
          "internalType": "uint256",
          "name": "tokenId",
          "type": "uint256"
        }
      ],
      "name": "getApproved",
      "outputs": [
        {
          "internalType": "address",
          "name": "",
          "type": "address"
        }
      ],
      "stateMutability": "view",
      "type": "function"
    },
    {
      "inputs": [],
      "name": "getNextTokenId",
      "outputs": [
        {
          "internalType": "uint256",
          "name": "",
          "type": "uint256"
        }
      ],
      "stateMutability": "view",
      "type": "function"
    },
    {
      "inputs": [
        {
          "internalType": "address",
          "name": "owner",
          "type": "address"
        },
        {
          "internalType": "address",
          "name": "operator",
          "type": "address"
        }
      ],
      "name": "isApprovedForAll",
      "outputs": [
        {
          "internalType": "bool",
          "name": "",
          "type": "bool"
        }
      ],
      "stateMutability": "view",
      "type": "function"
    },
    {
      "inputs": [
        {
          "internalType": "address",
          "name": "to",
          "type": "address"
        },
        {
          "internalType": "string",
          "name": "_tokenURI",
          "type": "string"
        }
      ],
      "name": "mint",
      "outputs": [
        {
          "internalType": "uint256",
          "name": "",
          "type": "uint256"
        }
      ],
      "stateMutability": "nonpayable",
      "type": "function"
    },
    {
      "inputs": [
        {
          "internalType": "string",
          "name": "_tokenURI",
          "type": "string"
        }
      ],
      "name": "mintToSelf",
      "outputs": [
        {
          "internalType": "uint256",
          "name": "",
          "type": "uint256"
        }
      ],
      "stateMutability": "nonpayable",
      "type": "function"
    },
    {
      "inputs": [],
      "name": "name",
      "outputs": [
        {
          "internalType": "string",
          "name": "",
          "type": "string"
        }
      ],
      "stateMutability": "view",
      "type": "function"
    },
    {
      "inputs": [],
      "name": "owner",
      "outputs": [
        {
          "internalType": "address",
          "name": "",
          "type": "address"
        }
      ],
      "stateMutability": "view",
      "type": "function"
    },
    {
      "inputs": [
        {
          "internalType": "uint256",
          "name": "tokenId",
          "type": "uint256"
        }
      ],
      "name": "ownerOf",
      "outputs": [
        {
          "internalType": "address",
          "name": "",
          "type": "address"
        }
      ],
      "stateMutability": "view",
      "type": "function"
    },
    {
      "inputs": [],
      "name": "renounceOwnership",
      "outputs": [],
      "stateMutability": "nonpayable",
      "type": "function"
    },
    {
      "inputs": [
        {
          "internalType": "address",
          "name": "from",
          "type": "address"
        },
        {
          "internalType": "address",
          "name": "to",
          "type": "address"
        },
        {
          "internalType": "uint256",
          "name": "tokenId",
          "type": "uint256"
        }
      ],
      "name": "safeTransferFrom",
      "outputs": [],
      "stateMutability": "nonpayable",
      "type": "function"
    },
    {
      "inputs": [
        {
          "internalType": "address",
          "name": "from",
          "type": "address"
        },
        {
          "internalType": "address",
          "name": "to",
          "type": "address"
        },
        {
          "internalType": "uint256",
          "name": "tokenId",
          "type": "uint256"
        },
        {
          "internalType": "bytes",
          "name": "data",
          "type": "bytes"
        }
      ],
      "name": "safeTransferFrom",
      "outputs": [],
      "stateMutability": "nonpayable",
      "type": "function"
    },
    {
      "inputs": [
        {
          "internalType": "address",
          "name": "operator",
          "type": "address"
        },
        {
          "internalType": "bool",
          "name": "approved",
          "type": "bool"
        }
      ],
      "name": "setApprovalForAll",
      "outputs": [],
      "stateMutability": "nonpayable",
      "type": "function"
    },
    {
      "inputs": [
        {
          "internalType": "bytes4",
          "name": "interfaceId",
          "type": "bytes4"
        }
      ],
      "name": "supportsInterface",
      "outputs": [
        {
          "internalType": "bool",
          "name": "",
          "type": "bool"
        }
      ],
      "stateMutability": "view",
      "type": "function"
    },
    {
      "inputs": [],
      "name": "symbol",
      "outputs": [
        {
          "internalType": "string",
          "name": "",
          "type": "string"
        }
      ],
      "stateMutability": "view",
      "type": "function"
    },
    {
      "inputs": [
        {
          "internalType": "uint256",
          "name": "tokenId",
          "type": "uint256"
        }
      ],
      "name": "tokenURI",
      "outputs": [
        {
          "internalType": "string",
          "name": "",
          "type": "string"
        }
      ],
      "stateMutability": "view",
      "type": "function"
    },
    {
      "inputs": [
        {
          "internalType": "address",
          "name": "from",
          "type": "address"
        },
        {
          "internalType": "address",
          "name": "to",
          "type": "address"
        },
        {
          "internalType": "uint256",
          "name": "tokenId",
          "type": "uint256"
        }
      ],
      "name": "transferFrom",
      "outputs": [],
      "stateMutability": "nonpayable",
      "type": "function"
    },
    {
      "inputs": [
        {
          "internalType": "address",
          "name": "newOwner",
          "type": "address"
        }
      ],
      "name": "transferOwnership",
      "outputs": [],
      "stateMutability": "nonpayable",
      "type": "function"
    }
  ],
  "bytecode": "0x60806040523480156200001157600080fd5b506040516200154d3803806200154d8339810160408190526200003491620001b6565b3382826000620000458382620002af565b506001620000548282620002af565b5050506001600160a01b0381166200008657604051631e4fbdf760e01b81526000600482015260240160405180910390fd5b62000091816200009f565b50506001600755506200037b565b600680546001600160a01b038381166001600160a01b0319831681179093556040519116919082907f8be0079c531659141344cd1fd0a4f28419497f9722a3daafe3b4186f6b6457e090600090a35050565b634e487b7160e01b600052604160045260246000fd5b600082601f8301126200011957600080fd5b81516001600160401b0380821115620001365762000136620000f1565b604051601f8301601f19908116603f01168101908282118183101715620001615762000161620000f1565b816040528381526020925086838588010111156200017e57600080fd5b600091505b83821015620001a2578582018301518183018401529082019062000183565b600093810190920192909252949350505050565b60008060408385031215620001ca57600080fd5b82516001600160401b0380821115620001e257600080fd5b620001f08683870162000107565b935060208501519150808211156200020757600080fd5b50620002168582860162000107565b9150509250929050565b600181811c908216806200023557607f821691505b6020821081036200025657634e487b7160e01b600052602260045260246000fd5b50919050565b601f821115620002aa57600081815260208120601f850160051c81016020861015620002855750805b601f850160051c820191505b81811015620002a65782815560010162000291565b5050505b505050565b81516001600160401b03811115620002cb57620002cb620000f1565b620002e381620002dc845462000220565b846200025c565b602080601f8311600181146200031b5760008415620003025750858301515b600019600386901b1c1916600185901b178555620002a6565b600085815260208120601f198616915b828110156200034c578886015182559484019460019091019084016200032b565b50858210156200036b5787850151600019600388901b60f8161c191681555b5050505050600190811b01905550565b6111c2806200038b6000396000f3fe608060405234801561001057600080fd5b50600436106101215760003560e01c8063715018a6116100ad578063c87b56dd11610071578063c87b56dd14610257578063caa0f92a1461026a578063d0def52114610272578063e985e9c514610285578063f2fde38b1461029857600080fd5b8063715018a6146102105780638da5cb5b1461021857806395d89b4114610229578063a22cb46514610231578063b88d4fde1461024457600080fd5b806323b872dd116100f457806323b872dd146101a357806342842e0e146101b65780635201248e146101c95780636352211e146101ea57806370a08231146101fd57600080fd5b806301ffc9a71461012657806306fdde031461014e578063081812fc14610163578063095ea7b31461018e575b600080fd5b610139610134366004610c85565b6102ab565b60405190151581526020015b60405180910390f35b6101566102fd565b6040516101459190610ce8565b610176610171366004610cfb565b61038f565b6040516001600160a01b039091168152602001610145565b6101a161019c366004610d30565b6103b8565b005b6101a16101b1366004610d5a565b6103c7565b6101a16101c4366004610d5a565b610457565b6101dc6101d7366004610e42565b610477565b604051908152602001610145565b6101766101f8366004610cfb565b6104a5565b6101dc61020b366004610e77565b6104b0565b6101a16104f8565b6006546001600160a01b0316610176565b61015661050c565b6101a161023f366004610e92565b61051b565b6101a1610252366004610ece565b610526565b610156610265366004610cfb565b61053e565b6007546101dc565b6101dc610280366004610f4a565b6105e8565b610139610293366004610f98565b610624565b6101a16102a6366004610e77565b610652565b60006001600160e01b031982166380ac58cd60e01b14806102dc57506001600160e01b03198216635b5e139f60e01b145b806102f757506301ffc9a760e01b6001600160e01b03198316145b92915050565b60606000805461030c90610fcb565b80601f016020809104026020016040519081016040528092919081815260200182805461033890610fcb565b80156103855780601f1061035a57610100808354040283529160200191610385565b820191906000526020600020905b81548152906001019060200180831161036857829003601f168201915b5050505050905090565b600061039a82610690565b506000828152600460205260409020546001600160a01b03166102f7565b6103c38282336106c9565b5050565b6001600160a01b0382166103f657604051633250574960e11b8152600060048201526024015b60405180910390fd5b60006104038383336106d6565b9050836001600160a01b0316816001600160a01b031614610451576040516364283d7b60e01b81526001600160a01b03808616600483015260248201849052821660448201526064016103ed565b50505050565b61047283838360405180602001604052806000815250610526565b505050565b600780546000918291908261048b83611005565b91905055905061049b33826107cf565b6102f78184610834565b60006102f782610690565b60006001600160a01b0382166104dc576040516322718ad960e21b8152600060048201526024016103ed565b506001600160a01b031660009081526003602052604090205490565b610500610856565b61050a6000610883565b565b60606001805461030c90610fcb565b6103c33383836108d5565b6105318484846103c7565b6104513385858585610974565b606061054982610690565b506000828152600860205260409020805461056390610fcb565b80601f016020809104026020016040519081016040528092919081815260200182805461058f90610fcb565b80156105dc5780601f106105b1576101008083540402835291602001916105dc565b820191906000526020600020905b8154815290600101906020018083116105bf57829003601f168201915b50505050509050919050565b60006105f2610856565b600780546000918261060383611005565b91905055905061061384826107cf565b61061d8184610834565b9392505050565b6001600160a01b03918216600090815260056020908152604080832093909416825291909152205460ff1690565b61065a610856565b6001600160a01b03811661068457604051631e4fbdf760e01b8152600060048201526024016103ed565b61068d81610883565b50565b6000818152600260205260408120546001600160a01b0316806102f757604051637e27328960e01b8152600481018490526024016103ed565b6104728383836001610a9f565b6000828152600260205260408120546001600160a01b039081169083161561070357610703818486610ba5565b6001600160a01b0381161561074157610720600085600080610a9f565b6001600160a01b038116600090815260036020526040902080546000190190555b6001600160a01b03851615610770576001600160a01b0385166000908152600360205260409020805460010190555b60008481526002602052604080822080546001600160a01b0319166001600160a01b0389811691821790925591518793918516917fddf252ad1be2c89b69c2b068fc378daa952ba7f163c4a11628f55a4df523b3ef91a4949350505050565b6001600160a01b0382166107f957604051633250574960e11b8152600060048201526024016103ed565b6000610807838360006106d6565b90506001600160a01b03811615610472576040516339e3563760e11b8152600060048201526024016103ed565b61083d82610690565b5060008281526008602052604090206104728282611072565b6006546001600160a01b0316331461050a5760405163118cdaa760e01b81523360048201526024016103ed565b600680546001600160a01b038381166001600160a01b0319831681179093556040519116919082907f8be0079c531659141344cd1fd0a4f28419497f9722a3daafe3b4186f6b6457e090600090a35050565b6001600160a01b03821661090757604051630b61174360e31b81526001600160a01b03831660048201526024016103ed565b6001600160a01b03838116600081815260056020908152604080832094871680845294825291829020805460ff191686151590811790915591519182527f17307eab39ab6107e8899845ad3d59bd9653f200f220920489ca2b5937696c31910160405180910390a3505050565b6001600160a01b0383163b15610a9857604051630a85bd0160e11b81526001600160a01b0384169063150b7a02906109b6908890889087908790600401611132565b6020604051808303816000875af19250505080156109f1575060408051601f3d908101601f191682019092526109ee9181019061116f565b60015b610a5a573d808015610a1f576040519150601f19603f3d011682016040523d82523d6000602084013e610a24565b606091505b508051600003610a5257604051633250574960e11b81526001600160a01b03851660048201526024016103ed565b805160208201fd5b6001600160e01b03198116630a85bd0160e11b14610a9657604051633250574960e11b81526001600160a01b03851660048201526024016103ed565b505b5050505050565b8080610ab357506001600160a01b03821615155b15610b75576000610ac384610690565b90506001600160a01b03831615801590610aef5750826001600160a01b0316816001600160a01b031614155b8015610b025750610b008184610624565b155b15610b2b5760405163a9fbf51f60e01b81526001600160a01b03841660048201526024016103ed565b8115610b735783856001600160a01b0316826001600160a01b03167f8c5be1e5ebec7d5bd14f71427d1e84f3dd0314c0f7b2291e5b200ac8c7c3b92560405160405180910390a45b505b5050600090815260046020526040902080546001600160a01b0319166001600160a01b0392909216919091179055565b610bb0838383610c09565b610472576001600160a01b038316610bde57604051637e27328960e01b8152600481018290526024016103ed565b60405163177e802f60e01b81526001600160a01b0383166004820152602481018290526044016103ed565b60006001600160a01b03831615801590610c675750826001600160a01b0316846001600160a01b03161480610c435750610c438484610624565b80610c6757506000828152600460205260409020546001600160a01b038481169116145b949350505050565b6001600160e01b03198116811461068d57600080fd5b600060208284031215610c9757600080fd5b813561061d81610c6f565b6000815180845260005b81811015610cc857602081850181015186830182015201610cac565b506000602082860101526020601f19601f83011685010191505092915050565b60208152600061061d6020830184610ca2565b600060208284031215610d0d57600080fd5b5035919050565b80356001600160a01b0381168114610d2b57600080fd5b919050565b60008060408385031215610d4357600080fd5b610d4c83610d14565b946020939093013593505050565b600080600060608486031215610d6f57600080fd5b610d7884610d14565b9250610d8660208501610d14565b9150604084013590509250925092565b634e487b7160e01b600052604160045260246000fd5b600067ffffffffffffffff80841115610dc757610dc7610d96565b604051601f8501601f19908116603f01168101908282118183101715610def57610def610d96565b81604052809350858152868686011115610e0857600080fd5b858560208301376000602087830101525050509392505050565b600082601f830112610e3357600080fd5b61061d83833560208501610dac565b600060208284031215610e5457600080fd5b813567ffffffffffffffff811115610e6b57600080fd5b610c6784828501610e22565b600060208284031215610e8957600080fd5b61061d82610d14565b60008060408385031215610ea557600080fd5b610eae83610d14565b915060208301358015158114610ec357600080fd5b809150509250929050565b60008060008060808587031215610ee457600080fd5b610eed85610d14565b9350610efb60208601610d14565b925060408501359150606085013567ffffffffffffffff811115610f1e57600080fd5b8501601f81018713610f2f57600080fd5b610f3e87823560208401610dac565b91505092959194509250565b60008060408385031215610f5d57600080fd5b610f6683610d14565b9150602083013567ffffffffffffffff811115610f8257600080fd5b610f8e85828601610e22565b9150509250929050565b60008060408385031215610fab57600080fd5b610fb483610d14565b9150610fc260208401610d14565b90509250929050565b600181811c90821680610fdf57607f821691505b602082108103610fff57634e487b7160e01b600052602260045260246000fd5b50919050565b60006001820161102557634e487b7160e01b600052601160045260246000fd5b5060010190565b601f82111561047257600081815260208120601f850160051c810160208610156110535750805b601f850160051c820191505b81811015610a965782815560010161105f565b815167ffffffffffffffff81111561108c5761108c610d96565b6110a08161109a8454610fcb565b8461102c565b602080601f8311600181146110d557600084156110bd5750858301515b600019600386901b1c1916600185901b178555610a96565b600085815260208120601f198616915b82811015611104578886015182559484019460019091019084016110e5565b50858210156111225787850151600019600388901b60f8161c191681555b5050505050600190811b01905550565b6001600160a01b038581168252841660208201526040810183905260806060820181905260009061116590830184610ca2565b9695505050505050565b60006020828403121561118157600080fd5b815161061d81610c6f56fea2646970667358221220fd0a5c87c630b05312e88717f0d52bafb7f1ff9eb92993fd2b4a0c531d05786664736f6c63430008140033",
  "linkReferences": {},
  "deployedLinkReferences": {}
}